{
	"data": {
		"bytecode": {
			"linkReferences": {},
			"object": "60806040526000805534801561001457600080fd5b50610180806100246000396000f3fe608060405234801561001057600080fd5b50600436106100365760003560e01c80633c8955051461003b5780637906e1ab14610045575b600080fd5b610043610063565b005b61004d61008b565b60405161005a91906100aa565b60405180910390f35b5b60011561008957600160008082825461007d91906100f4565b92505081905550610064565b565b60005481565b6000819050919050565b6100a481610091565b82525050565b60006020820190506100bf600083018461009b565b92915050565b7f4e487b7100000000000000000000000000000000000000000000000000000000600052601160045260246000fd5b60006100ff82610091565b915061010a83610091565b9250827fffffffffffffffffffffffffffffffffffffffffffffffffffffffffffffffff0382111561013f5761013e6100c5565b5b82820190509291505056fea2646970667358221220d1f2512b813b3148ba0b69130d70d5d0c5ec6d6023d931be30718a971055855864736f6c634300080c0033",
			"opcodes": "PUSH1 0x80 PUSH1 0x40 MSTORE PUSH1 0x0 DUP1 SSTORE CALLVALUE DUP1 ISZERO PUSH2 0x14 JUMPI PUSH1 0x0 DUP1 REVERT JUMPDEST POP PUSH2 0x180 DUP1 PUSH2 0x24 PUSH1 0x0 CODECOPY PUSH1 0x0 RETURN INVALID PUSH1 0x80 PUSH1 0x40 MSTORE CALLVALUE DUP1 ISZERO PUSH2 0x10 JUMPI PUSH1 0x0 DUP1 REVERT JUMPDEST POP PUSH1 0x4 CALLDATASIZE LT PUSH2 0x36 JUMPI PUSH1 0x0 CALLDATALOAD PUSH1 0xE0 SHR DUP1 PUSH4 0x3C895505 EQ PUSH2 0x3B JUMPI DUP1 PUSH4 0x7906E1AB EQ PUSH2 0x45 JUMPI JUMPDEST PUSH1 0x0 DUP1 REVERT JUMPDEST PUSH2 0x43 PUSH2 0x63 JUMP JUMPDEST STOP JUMPDEST PUSH2 0x4D PUSH2 0x8B JUMP JUMPDEST PUSH1 0x40 MLOAD PUSH2 0x5A SWAP2 SWAP1 PUSH2 0xAA JUMP JUMPDEST PUSH1 0x40 MLOAD DUP1 SWAP2 SUB SWAP1 RETURN JUMPDEST JUMPDEST PUSH1 0x1 ISZERO PUSH2 0x89 JUMPI PUSH1 0x1 PUSH1 0x0 DUP1 DUP3 DUP3 SLOAD PUSH2 0x7D SWAP2 SWAP1 PUSH2 0xF4 JUMP JUMPDEST SWAP3 POP POP DUP2 SWAP1 SSTORE POP PUSH2 0x64 JUMP JUMPDEST JUMP JUMPDEST PUSH1 0x0 SLOAD DUP2 JUMP JUMPDEST PUSH1 0x0 DUP2 SWAP1 POP SWAP2 SWAP1 POP JUMP JUMPDEST PUSH2 0xA4 DUP2 PUSH2 0x91 JUMP JUMPDEST DUP3 MSTORE POP POP JUMP JUMPDEST PUSH1 0x0 PUSH1 0x20 DUP3 ADD SWAP1 POP PUSH2 0xBF PUSH1 0x0 DUP4 ADD DUP5 PUSH2 0x9B JUMP JUMPDEST SWAP3 SWAP2 POP POP JUMP JUMPDEST PUSH32 0x4E487B7100000000000000000000000000000000000000000000000000000000 PUSH1 0x0 MSTORE PUSH1 0x11 PUSH1 0x4 MSTORE PUSH1 0x24 PUSH1 0x0 REVERT JUMPDEST PUSH1 0x0 PUSH2 0xFF DUP3 PUSH2 0x91 JUMP JUMPDEST SWAP2 POP PUSH2 0x10A DUP4 PUSH2 0x91 JUMP JUMPDEST SWAP3 POP DUP3 PUSH32 0xFFFFFFFFFFFFFFFFFFFFFFFFFFFFFFFFFFFFFFFFFFFFFFFFFFFFFFFFFFFFFFFF SUB DUP3 GT ISZERO PUSH2 0x13F JUMPI PUSH2 0x13E PUSH2 0xC5 JUMP JUMPDEST JUMPDEST DUP3 DUP3 ADD SWAP1 POP SWAP3 SWAP2 POP POP JUMP INVALID LOG2 PUSH5 0x6970667358 0x22 SLT KECCAK256 0xD1 CALLCODE MLOAD 0x2B DUP2 EXTCODESIZE BALANCE BASEFEE 0xBA SIGNEXTEND PUSH10 0x130D70D5D0C5EC6D6023 0xD9 BALANCE 0xBE ADDRESS PUSH18 0x8A971055855864736F6C634300080C003300 "
		},
		"gasEstimates": {
			"creation": {
				"codeDepositCost": "76800",
				"executionCost": "5129",
				"totalCost": "81929"
			},
			"external": {
				"contor()": "2429",
				"runningInfinite()": "infinite"
			}
		},
		"methodIdentifiers": {
			"contor()": "7906e1ab",
			"runningInfinite()": "3c895505"
		}
	},
	"abi": [
		{
			"inputs": [],
			"name": "contor",
			"outputs": [
				{
					"internalType": "uint256",
					"name": "",
					"type": "uint256"
				}
			],
			"stateMutability": "view",
			"type": "function"
		},
		{
			"inputs": [],
			"name": "runningInfinite",
			"outputs": [],
			"stateMutability": "nonpayable",
			"type": "function"
		}
	]
}